{
  "contractName": "QuestManager",
  "abi": [
    {
      "constant": true,
      "inputs": [],
      "name": "name",
      "outputs": [
        {
          "name": "",
          "type": "string"
        }
      ],
      "payable": false,
      "stateMutability": "view",
      "type": "function"
    },
    {
      "constant": true,
      "inputs": [
        {
          "name": "_tokenId",
          "type": "uint256"
        }
      ],
      "name": "getApproved",
      "outputs": [
        {
          "name": "",
          "type": "address"
        }
      ],
      "payable": false,
      "stateMutability": "view",
      "type": "function"
    },
    {
      "constant": false,
      "inputs": [
        {
          "name": "_to",
          "type": "address"
        },
        {
          "name": "_tokenId",
          "type": "uint256"
        }
      ],
      "name": "approve",
      "outputs": [],
      "payable": false,
      "stateMutability": "nonpayable",
      "type": "function"
    },
    {
      "constant": true,
      "inputs": [],
      "name": "totalSupply",
      "outputs": [
        {
          "name": "",
          "type": "uint256"
        }
      ],
      "payable": false,
      "stateMutability": "view",
      "type": "function"
    },
    {
      "constant": false,
      "inputs": [
        {
          "name": "_from",
          "type": "address"
        },
        {
          "name": "_to",
          "type": "address"
        },
        {
          "name": "_tokenId",
          "type": "uint256"
        }
      ],
      "name": "transferFrom",
      "outputs": [],
      "payable": false,
      "stateMutability": "nonpayable",
      "type": "function"
    },
    {
      "constant": true,
      "inputs": [
        {
          "name": "_owner",
          "type": "address"
        },
        {
          "name": "_index",
          "type": "uint256"
        }
      ],
      "name": "tokenOfOwnerByIndex",
      "outputs": [
        {
          "name": "",
          "type": "uint256"
        }
      ],
      "payable": false,
      "stateMutability": "view",
      "type": "function"
    },
    {
      "constant": false,
      "inputs": [
        {
          "name": "_from",
          "type": "address"
        },
        {
          "name": "_to",
          "type": "address"
        },
        {
          "name": "_tokenId",
          "type": "uint256"
        }
      ],
      "name": "safeTransferFrom",
      "outputs": [],
      "payable": false,
      "stateMutability": "nonpayable",
      "type": "function"
    },
    {
      "constant": true,
      "inputs": [
        {
          "name": "_tokenId",
          "type": "uint256"
        }
      ],
      "name": "exists",
      "outputs": [
        {
          "name": "",
          "type": "bool"
        }
      ],
      "payable": false,
      "stateMutability": "view",
      "type": "function"
    },
    {
      "constant": true,
      "inputs": [
        {
          "name": "_index",
          "type": "uint256"
        }
      ],
      "name": "tokenByIndex",
      "outputs": [
        {
          "name": "",
          "type": "uint256"
        }
      ],
      "payable": false,
      "stateMutability": "view",
      "type": "function"
    },
    {
      "constant": true,
      "inputs": [
        {
          "name": "_tokenId",
          "type": "uint256"
        }
      ],
      "name": "ownerOf",
      "outputs": [
        {
          "name": "",
          "type": "address"
        }
      ],
      "payable": false,
      "stateMutability": "view",
      "type": "function"
    },
    {
      "constant": true,
      "inputs": [
        {
          "name": "_owner",
          "type": "address"
        }
      ],
      "name": "balanceOf",
      "outputs": [
        {
          "name": "",
          "type": "uint256"
        }
      ],
      "payable": false,
      "stateMutability": "view",
      "type": "function"
    },
    {
      "constant": false,
      "inputs": [],
      "name": "renounceOwnership",
      "outputs": [],
      "payable": false,
      "stateMutability": "nonpayable",
      "type": "function"
    },
    {
      "constant": false,
      "inputs": [
        {
          "name": "_to",
          "type": "address"
        },
        {
          "name": "_tokenURI",
          "type": "string"
        },
        {
          "name": "_name",
          "type": "string"
        }
      ],
      "name": "mintTo",
      "outputs": [],
      "payable": false,
      "stateMutability": "nonpayable",
      "type": "function"
    },
    {
      "constant": true,
      "inputs": [],
      "name": "owner",
      "outputs": [
        {
          "name": "",
          "type": "address"
        }
      ],
      "payable": false,
      "stateMutability": "view",
      "type": "function"
    },
    {
      "constant": true,
      "inputs": [],
      "name": "symbol",
      "outputs": [
        {
          "name": "",
          "type": "string"
        }
      ],
      "payable": false,
      "stateMutability": "view",
      "type": "function"
    },
    {
      "constant": false,
      "inputs": [
        {
          "name": "_to",
          "type": "address"
        },
        {
          "name": "_approved",
          "type": "bool"
        }
      ],
      "name": "setApprovalForAll",
      "outputs": [],
      "payable": false,
      "stateMutability": "nonpayable",
      "type": "function"
    },
    {
      "constant": false,
      "inputs": [
        {
          "name": "_from",
          "type": "address"
        },
        {
          "name": "_to",
          "type": "address"
        },
        {
          "name": "_tokenId",
          "type": "uint256"
        },
        {
          "name": "_data",
          "type": "bytes"
        }
      ],
      "name": "safeTransferFrom",
      "outputs": [],
      "payable": false,
      "stateMutability": "nonpayable",
      "type": "function"
    },
    {
      "constant": true,
      "inputs": [
        {
          "name": "_tokenId",
          "type": "uint256"
        }
      ],
      "name": "tokenURI",
      "outputs": [
        {
          "name": "",
          "type": "string"
        }
      ],
      "payable": false,
      "stateMutability": "view",
      "type": "function"
    },
    {
      "constant": true,
      "inputs": [
        {
          "name": "_owner",
          "type": "address"
        },
        {
          "name": "_operator",
          "type": "address"
        }
      ],
      "name": "isApprovedForAll",
      "outputs": [
        {
          "name": "",
          "type": "bool"
        }
      ],
      "payable": false,
      "stateMutability": "view",
      "type": "function"
    },
    {
      "constant": false,
      "inputs": [
        {
          "name": "newOwner",
          "type": "address"
        }
      ],
      "name": "transferOwnership",
      "outputs": [],
      "payable": false,
      "stateMutability": "nonpayable",
      "type": "function"
    },
    {
      "anonymous": false,
      "inputs": [
        {
          "indexed": true,
          "name": "previousOwner",
          "type": "address"
        }
      ],
      "name": "OwnershipRenounced",
      "type": "event"
    },
    {
      "anonymous": false,
      "inputs": [
        {
          "indexed": true,
          "name": "previousOwner",
          "type": "address"
        },
        {
          "indexed": true,
          "name": "newOwner",
          "type": "address"
        }
      ],
      "name": "OwnershipTransferred",
      "type": "event"
    },
    {
      "anonymous": false,
      "inputs": [
        {
          "indexed": true,
          "name": "_from",
          "type": "address"
        },
        {
          "indexed": true,
          "name": "_to",
          "type": "address"
        },
        {
          "indexed": false,
          "name": "_tokenId",
          "type": "uint256"
        }
      ],
      "name": "Transfer",
      "type": "event"
    },
    {
      "anonymous": false,
      "inputs": [
        {
          "indexed": true,
          "name": "_owner",
          "type": "address"
        },
        {
          "indexed": true,
          "name": "_approved",
          "type": "address"
        },
        {
          "indexed": false,
          "name": "_tokenId",
          "type": "uint256"
        }
      ],
      "name": "Approval",
      "type": "event"
    },
    {
      "anonymous": false,
      "inputs": [
        {
          "indexed": true,
          "name": "_owner",
          "type": "address"
        },
        {
          "indexed": true,
          "name": "_operator",
          "type": "address"
        },
        {
          "indexed": false,
          "name": "_approved",
          "type": "bool"
        }
      ],
      "name": "ApprovalForAll",
      "type": "event"
    },
    {
      "constant": false,
      "inputs": [
        {
          "name": "_name",
          "type": "string"
        },
        {
          "name": "_hint",
          "type": "string"
        },
        {
          "name": "_numTokens",
          "type": "uint256"
        },
        {
          "name": "_merkleRoot",
          "type": "bytes32"
        },
        {
          "name": "_cardName",
          "type": "string"
        }
      ],
      "name": "createQuest",
      "outputs": [
        {
          "name": "",
          "type": "uint256"
        }
      ],
      "payable": false,
      "stateMutability": "nonpayable",
      "type": "function"
    },
    {
      "constant": false,
      "inputs": [
        {
          "name": "_questID",
          "type": "uint256"
        },
        {
          "name": "_proof",
          "type": "bytes32[]"
        },
        {
          "name": "_leaf",
          "type": "bytes32"
        }
      ],
      "name": "proveLocation",
      "outputs": [
        {
          "name": "",
          "type": "bool"
        }
      ],
      "payable": false,
      "stateMutability": "nonpayable",
      "type": "function"
    },
    {
      "constant": false,
      "inputs": [],
      "name": "getQuestList",
      "outputs": [
        {
          "name": "",
          "type": "uint256[]"
        }
      ],
      "payable": false,
      "stateMutability": "nonpayable",
      "type": "function"
    },
    {
      "constant": false,
      "inputs": [
        {
          "name": "_ID",
          "type": "uint256"
        }
      ],
      "name": "getQuest",
      "outputs": [
        {
          "name": "",
          "type": "string"
        },
        {
          "name": "",
          "type": "string"
        },
        {
          "name": "",
          "type": "bytes32"
        },
        {
          "name": "",
          "type": "address"
        },
        {
          "name": "",
          "type": "string"
        },
        {
          "name": "",
          "type": "uint256"
        }
      ],
      "payable": false,
      "stateMutability": "nonpayable",
      "type": "function"
    }
  ],
  "bytecode": "0x60806040526000600d556040805190810160405280600a81526020017f51756573744361726473000000000000000000000000000000000000000000008152506040805190810160405280600581526020017f515545535400000000000000000000000000000000000000000000000000000081525081600490805190602001906200008d929190620000f0565b508060059080519060200190620000a6929190620000f0565b50505033600b60006101000a81548173ffffffffffffffffffffffffffffffffffffffff021916908373ffffffffffffffffffffffffffffffffffffffff1602179055506200019f565b828054600181600116156101000203166002900490600052602060002090601f016020900481019282601f106200013357805160ff191683800117855562000164565b8280016001018555821562000164579182015b828111156200016357825182559160200191906001019062000146565b5b50905062000173919062000177565b5090565b6200019c91905b80821115620001985760008160009055506001016200017e565b5090565b90565b612d2480620001af6000396000f30060806040526004361061013e576000357c0100000000000000000000000000000000000000000000000000000000900463ffffffff16806306fdde0314610143578063081812fc146101d3578063095ea7b31461024057806318160ddd1461028d57806323b872dd146102b85780632f745c591461032557806342842e0e1461038657806349f86f34146103f35780634f558e79146105ba5780634f6ccce7146105ff5780635175d1bf146106405780636352211e1461076157806370a08231146107ce578063715018a6146108255780637897f76a1461083c5780637ac793b21461090b5780638da5cb5b1461097757806395d89b41146109ce578063a22cb46514610a5e578063b88d4fde14610aad578063c87b56dd14610b60578063d6b73d1114610c06578063e985e9c514610c9c578063f2fde38b14610d17575b600080fd5b34801561014f57600080fd5b50610158610d5a565b6040518080602001828103825283818151815260200191508051906020019080838360005b8381101561019857808201518184015260208101905061017d565b50505050905090810190601f1680156101c55780820380516001836020036101000a031916815260200191505b509250505060405180910390f35b3480156101df57600080fd5b506101fe60048036038101908080359060200190929190505050610dfc565b604051808273ffffffffffffffffffffffffffffffffffffffff1673ffffffffffffffffffffffffffffffffffffffff16815260200191505060405180910390f35b34801561024c57600080fd5b5061028b600480360381019080803573ffffffffffffffffffffffffffffffffffffffff16906020019092919080359060200190929190505050610e39565b005b34801561029957600080fd5b506102a2610fff565b6040518082815260200191505060405180910390f35b3480156102c457600080fd5b50610323600480360381019080803573ffffffffffffffffffffffffffffffffffffffff169060200190929190803573ffffffffffffffffffffffffffffffffffffffff1690602001909291908035906020019092919050505061100c565b005b34801561033157600080fd5b50610370600480360381019080803573ffffffffffffffffffffffffffffffffffffffff16906020019092919080359060200190929190505050611123565b6040518082815260200191505060405180910390f35b34801561039257600080fd5b506103f1600480360381019080803573ffffffffffffffffffffffffffffffffffffffff169060200190929190803573ffffffffffffffffffffffffffffffffffffffff1690602001909291908035906020019092919050505061119a565b005b3480156103ff57600080fd5b5061041e600480360381019080803590602001909291905050506111d2565b60405180806020018060200187600019166000191681526020018673ffffffffffffffffffffffffffffffffffffffff1673ffffffffffffffffffffffffffffffffffffffff1681526020018060200185815260200184810384528a818151815260200191508051906020019080838360005b838110156104ac578082015181840152602081019050610491565b50505050905090810190601f1680156104d95780820380516001836020036101000a031916815260200191505b50848103835289818151815260200191508051906020019080838360005b838110156105125780820151818401526020810190506104f7565b50505050905090810190601f16801561053f5780820380516001836020036101000a031916815260200191505b50848103825286818151815260200191508051906020019080838360005b8381101561057857808201518184015260208101905061055d565b50505050905090810190601f1680156105a55780820380516001836020036101000a031916815260200191505b50995050505050505050505060405180910390f35b3480156105c657600080fd5b506105e560048036038101908080359060200190929190505050611417565b604051808215151515815260200191505060405180910390f35b34801561060b57600080fd5b5061062a60048036038101908080359060200190929190505050611488565b6040518082815260200191505060405180910390f35b34801561064c57600080fd5b5061074b600480360381019080803590602001908201803590602001908080601f0160208091040260200160405190810160405280939291908181526020018383808284378201915050505050509192919290803590602001908201803590602001908080601f0160208091040260200160405190810160405280939291908181526020018383808284378201915050505050509192919290803590602001909291908035600019169060200190929190803590602001908201803590602001908080601f01602080910402602001604051908101604052809392919081815260200183838082843782019150505050505091929192905050506114c0565b6040518082815260200191505060405180910390f35b34801561076d57600080fd5b5061078c6004803603810190808035906020019092919050505061166a565b604051808273ffffffffffffffffffffffffffffffffffffffff1673ffffffffffffffffffffffffffffffffffffffff16815260200191505060405180910390f35b3480156107da57600080fd5b5061080f600480360381019080803573ffffffffffffffffffffffffffffffffffffffff1690602001909291905050506116e7565b6040518082815260200191505060405180910390f35b34801561083157600080fd5b5061083a61176b565b005b34801561084857600080fd5b50610909600480360381019080803573ffffffffffffffffffffffffffffffffffffffff169060200190929190803590602001908201803590602001908080601f0160208091040260200160405190810160405280939291908181526020018383808284378201915050505050509192919290803590602001908201803590602001908080601f0160208091040260200160405190810160405280939291908181526020018383808284378201915050505050509192919290505050611870565b005b34801561091757600080fd5b5061092061191d565b6040518080602001828103825283818151815260200191508051906020019060200280838360005b83811015610963578082015181840152602081019050610948565b505050509050019250505060405180910390f35b34801561098357600080fd5b5061098c611975565b604051808273ffffffffffffffffffffffffffffffffffffffff1673ffffffffffffffffffffffffffffffffffffffff16815260200191505060405180910390f35b3480156109da57600080fd5b506109e361199b565b6040518080602001828103825283818151815260200191508051906020019080838360005b83811015610a23578082015181840152602081019050610a08565b50505050905090810190601f168015610a505780820380516001836020036101000a031916815260200191505b509250505060405180910390f35b348015610a6a57600080fd5b50610aab600480360381019080803573ffffffffffffffffffffffffffffffffffffffff169060200190929190803515159060200190929190505050611a3d565b005b348015610ab957600080fd5b50610b5e600480360381019080803573ffffffffffffffffffffffffffffffffffffffff169060200190929190803573ffffffffffffffffffffffffffffffffffffffff16906020019092919080359060200190929190803590602001908201803590602001908080601f0160208091040260200160405190810160405280939291908181526020018383808284378201915050505050509192919290505050611b79565b005b348015610b6c57600080fd5b50610b8b60048036038101908080359060200190929190505050611bb8565b6040518080602001828103825283818151815260200191508051906020019080838360005b83811015610bcb578082015181840152602081019050610bb0565b50505050905090810190601f168015610bf85780820380516001836020036101000a031916815260200191505b509250505060405180910390f35b348015610c1257600080fd5b50610c8260048036038101908080359060200190929190803590602001908201803590602001908080602002602001604051908101604052809392919081815260200183836020028082843782019150505050505091929192908035600019169060200190929190505050611c81565b604051808215151515815260200191505060405180910390f35b348015610ca857600080fd5b50610cfd600480360381019080803573ffffffffffffffffffffffffffffffffffffffff169060200190929190803573ffffffffffffffffffffffffffffffffffffffff169060200190929190505050611d87565b604051808215151515815260200191505060405180910390f35b348015610d2357600080fd5b50610d58600480360381019080803573ffffffffffffffffffffffffffffffffffffffff169060200190929190505050611e1b565b005b606060048054600181600116156101000203166002900480601f016020809104026020016040519081016040528092919081815260200182805460018160011615610100020316600290048015610df25780601f10610dc757610100808354040283529160200191610df2565b820191906000526020600020905b815481529060010190602001808311610dd557829003601f168201915b5050505050905090565b60006001600083815260200190815260200160002060009054906101000a900473ffffffffffffffffffffffffffffffffffffffff169050919050565b6000610e448261166a565b90508073ffffffffffffffffffffffffffffffffffffffff168373ffffffffffffffffffffffffffffffffffffffff1614151515610e8157600080fd5b8073ffffffffffffffffffffffffffffffffffffffff163373ffffffffffffffffffffffffffffffffffffffff161480610ec15750610ec08133611d87565b5b1515610ecc57600080fd5b600073ffffffffffffffffffffffffffffffffffffffff16610eed83610dfc565b73ffffffffffffffffffffffffffffffffffffffff16141580610f3d5750600073ffffffffffffffffffffffffffffffffffffffff168373ffffffffffffffffffffffffffffffffffffffff1614155b15610ffa57826001600084815260200190815260200160002060006101000a81548173ffffffffffffffffffffffffffffffffffffffff021916908373ffffffffffffffffffffffffffffffffffffffff1602179055508273ffffffffffffffffffffffffffffffffffffffff168173ffffffffffffffffffffffffffffffffffffffff167f8c5be1e5ebec7d5bd14f71427d1e84f3dd0314c0f7b2291e5b200ac8c7c3b925846040518082815260200191505060405180910390a35b505050565b6000600880549050905090565b806110173382611f73565b151561102257600080fd5b600073ffffffffffffffffffffffffffffffffffffffff168473ffffffffffffffffffffffffffffffffffffffff161415151561105e57600080fd5b600073ffffffffffffffffffffffffffffffffffffffff168373ffffffffffffffffffffffffffffffffffffffff161415151561109a57600080fd5b6110a48483612008565b6110ae8483612171565b6110b88383612389565b8273ffffffffffffffffffffffffffffffffffffffff168473ffffffffffffffffffffffffffffffffffffffff167fddf252ad1be2c89b69c2b068fc378daa952ba7f163c4a11628f55a4df523b3ef846040518082815260200191505060405180910390a350505050565b600061112e836116e7565b8210151561113b57600080fd5b600660008473ffffffffffffffffffffffffffffffffffffffff1673ffffffffffffffffffffffffffffffffffffffff1681526020019081526020016000208281548110151561118757fe5b9060005260206000200154905092915050565b806111a53382611f73565b15156111b057600080fd5b6111cc8484846020604051908101604052806000815250611b79565b50505050565b6060806000806060600080600e60008981526020019081526020016000209050806002018160030182600401548360000160009054906101000a900473ffffffffffffffffffffffffffffffffffffffff16846005018560060154858054600181600116156101000203166002900480601f0160208091040260200160405190810160405280929190818152602001828054600181600116156101000203166002900480156112c25780601f10611297576101008083540402835291602001916112c2565b820191906000526020600020905b8154815290600101906020018083116112a557829003601f168201915b50505050509550848054600181600116156101000203166002900480601f01602080910402602001604051908101604052809291908181526020018280546001816001161561010002031660029004801561135e5780601f106113335761010080835404028352916020019161135e565b820191906000526020600020905b81548152906001019060200180831161134157829003601f168201915b50505050509450818054600181600116156101000203166002900480601f0160208091040260200160405190810160405280929190818152602001828054600181600116156101000203166002900480156113fa5780601f106113cf576101008083540402835291602001916113fa565b820191906000526020600020905b8154815290600101906020018083116113dd57829003601f168201915b505050505091509650965096509650965096505091939550919395565b60008060008084815260200190815260200160002060009054906101000a900473ffffffffffffffffffffffffffffffffffffffff169050600073ffffffffffffffffffffffffffffffffffffffff168173ffffffffffffffffffffffffffffffffffffffff161415915050919050565b6000611492610fff565b8210151561149f57600080fd5b6008828154811015156114ae57fe5b90600052602060002001549050919050565b60006114ca612b50565b6000600d600081548092919060010191905055905087826040018190525086826060018190525084826080019060001916908160001916815250508082602001818152505033826000019073ffffffffffffffffffffffffffffffffffffffff16908173ffffffffffffffffffffffffffffffffffffffff1681525050838260a00181905250858260c001818152505081600e600083815260200190815260200160002060008201518160000160006101000a81548173ffffffffffffffffffffffffffffffffffffffff021916908373ffffffffffffffffffffffffffffffffffffffff1602179055506020820151816001015560408201518160020190805190602001906115db929190612ba7565b5060608201518160030190805190602001906115f8929190612ba7565b506080820151816004019060001916905560a0820151816005019080519060200190611625929190612ba7565b5060c08201518160060155905050600f819080600181540180825580915050906001820390600052602060002001600090919290919091505550505095945050505050565b60008060008084815260200190815260200160002060009054906101000a900473ffffffffffffffffffffffffffffffffffffffff169050600073ffffffffffffffffffffffffffffffffffffffff168173ffffffffffffffffffffffffffffffffffffffff16141515156116de57600080fd5b80915050919050565b60008073ffffffffffffffffffffffffffffffffffffffff168273ffffffffffffffffffffffffffffffffffffffff161415151561172457600080fd5b600260008373ffffffffffffffffffffffffffffffffffffffff1673ffffffffffffffffffffffffffffffffffffffff168152602001908152602001600020549050919050565b600b60009054906101000a900473ffffffffffffffffffffffffffffffffffffffff1673ffffffffffffffffffffffffffffffffffffffff163373ffffffffffffffffffffffffffffffffffffffff161415156117c757600080fd5b600b60009054906101000a900473ffffffffffffffffffffffffffffffffffffffff1673ffffffffffffffffffffffffffffffffffffffff167ff8df31144d9c2f0f6b59d69b8b98abd5459d07f2742c4df920b25aae33c6482060405160405180910390a26000600b60006101000a81548173ffffffffffffffffffffffffffffffffffffffff021916908373ffffffffffffffffffffffffffffffffffffffff160217905550565b6000600b60009054906101000a900473ffffffffffffffffffffffffffffffffffffffff1673ffffffffffffffffffffffffffffffffffffffff163373ffffffffffffffffffffffffffffffffffffffff161415156118ce57600080fd5b6118d6612460565b90506118e28482612482565b6118ec81846124d9565b81600c60008381526020019081526020016000206000019080519060200190611916929190612c27565b5050505050565b6060600f80548060200260200160405190810160405280929190818152602001828054801561196b57602002820191906000526020600020905b815481526020019060010190808311611957575b5050505050905090565b600b60009054906101000a900473ffffffffffffffffffffffffffffffffffffffff1681565b606060058054600181600116156101000203166002900480601f016020809104026020016040519081016040528092919081815260200182805460018160011615610100020316600290048015611a335780601f10611a0857610100808354040283529160200191611a33565b820191906000526020600020905b815481529060010190602001808311611a1657829003601f168201915b5050505050905090565b3373ffffffffffffffffffffffffffffffffffffffff168273ffffffffffffffffffffffffffffffffffffffff1614151515611a7857600080fd5b80600360003373ffffffffffffffffffffffffffffffffffffffff1673ffffffffffffffffffffffffffffffffffffffff16815260200190815260200160002060008473ffffffffffffffffffffffffffffffffffffffff1673ffffffffffffffffffffffffffffffffffffffff16815260200190815260200160002060006101000a81548160ff0219169083151502179055508173ffffffffffffffffffffffffffffffffffffffff163373ffffffffffffffffffffffffffffffffffffffff167f17307eab39ab6107e8899845ad3d59bd9653f200f220920489ca2b5937696c3183604051808215151515815260200191505060405180910390a35050565b81611b843382611f73565b1515611b8f57600080fd5b611b9a85858561100c565b611ba685858585612519565b1515611bb157600080fd5b5050505050565b6060611bc382611417565b1515611bce57600080fd5b600a60008381526020019081526020016000208054600181600116156101000203166002900480601f016020809104026020016040519081016040528092919081815260200182805460018160011615610100020316600290048015611c755780601f10611c4a57610100808354040283529160200191611c75565b820191906000526020600020905b815481529060010190602001808311611c5857829003601f168201915b50505050509050919050565b6000611ca483600e60008781526020019081526020016000206004015484612707565b15611d7b57611d72336020604051908101604052806000815250600e60008881526020019081526020016000206005018054600181600116156101000203166002900480601f016020809104026020016040519081016040528092919081815260200182805460018160011615610100020316600290048015611d685780601f10611d3d57610100808354040283529160200191611d68565b820191906000526020600020905b815481529060010190602001808311611d4b57829003601f168201915b5050505050611870565b60019050611d80565b600090505b9392505050565b6000600360008473ffffffffffffffffffffffffffffffffffffffff1673ffffffffffffffffffffffffffffffffffffffff16815260200190815260200160002060008373ffffffffffffffffffffffffffffffffffffffff1673ffffffffffffffffffffffffffffffffffffffff16815260200190815260200160002060009054906101000a900460ff16905092915050565b600b60009054906101000a900473ffffffffffffffffffffffffffffffffffffffff1673ffffffffffffffffffffffffffffffffffffffff163373ffffffffffffffffffffffffffffffffffffffff16141515611e7757600080fd5b600073ffffffffffffffffffffffffffffffffffffffff168173ffffffffffffffffffffffffffffffffffffffff1614151515611eb357600080fd5b8073ffffffffffffffffffffffffffffffffffffffff16600b60009054906101000a900473ffffffffffffffffffffffffffffffffffffffff1673ffffffffffffffffffffffffffffffffffffffff167f8be0079c531659141344cd1fd0a4f28419497f9722a3daafe3b4186f6b6457e060405160405180910390a380600b60006101000a81548173ffffffffffffffffffffffffffffffffffffffff021916908373ffffffffffffffffffffffffffffffffffffffff16021790555050565b600080611f7f8361166a565b90508073ffffffffffffffffffffffffffffffffffffffff168473ffffffffffffffffffffffffffffffffffffffff161480611fee57508373ffffffffffffffffffffffffffffffffffffffff16611fd684610dfc565b73ffffffffffffffffffffffffffffffffffffffff16145b80611fff5750611ffe8185611d87565b5b91505092915050565b8173ffffffffffffffffffffffffffffffffffffffff166120288261166a565b73ffffffffffffffffffffffffffffffffffffffff1614151561204a57600080fd5b600073ffffffffffffffffffffffffffffffffffffffff166001600083815260200190815260200160002060009054906101000a900473ffffffffffffffffffffffffffffffffffffffff1673ffffffffffffffffffffffffffffffffffffffff1614151561216d5760006001600083815260200190815260200160002060006101000a81548173ffffffffffffffffffffffffffffffffffffffff021916908373ffffffffffffffffffffffffffffffffffffffff160217905550600073ffffffffffffffffffffffffffffffffffffffff168273ffffffffffffffffffffffffffffffffffffffff167f8c5be1e5ebec7d5bd14f71427d1e84f3dd0314c0f7b2291e5b200ac8c7c3b925836040518082815260200191505060405180910390a35b5050565b600080600061218085856127d2565b600760008581526020019081526020016000205492506121ec6001600660008873ffffffffffffffffffffffffffffffffffffffff1673ffffffffffffffffffffffffffffffffffffffff1681526020019081526020016000208054905061290090919063ffffffff16565b9150600660008673ffffffffffffffffffffffffffffffffffffffff1673ffffffffffffffffffffffffffffffffffffffff1681526020019081526020016000208281548110151561223a57fe5b9060005260206000200154905080600660008773ffffffffffffffffffffffffffffffffffffffff1673ffffffffffffffffffffffffffffffffffffffff1681526020019081526020016000208481548110151561229457fe5b90600052602060002001819055506000600660008773ffffffffffffffffffffffffffffffffffffffff1673ffffffffffffffffffffffffffffffffffffffff168152602001908152602001600020838154811015156122f057fe5b9060005260206000200181905550600660008673ffffffffffffffffffffffffffffffffffffffff1673ffffffffffffffffffffffffffffffffffffffff1681526020019081526020016000208054809190600190036123509190612ca7565b50600060076000868152602001908152602001600020819055508260076000838152602001908152602001600020819055505050505050565b60006123958383612919565b600660008473ffffffffffffffffffffffffffffffffffffffff1673ffffffffffffffffffffffffffffffffffffffff168152602001908152602001600020805490509050600660008473ffffffffffffffffffffffffffffffffffffffff1673ffffffffffffffffffffffffffffffffffffffff168152602001908152602001600020829080600181540180825580915050906001820390600052602060002001600090919290919091505550806007600084815260200190815260200160002081905550505050565b600061247d600161246f610fff565b612a7190919063ffffffff16565b905090565b61248c8282612a8d565b600880549050600960008381526020019081526020016000208190555060088190806001815401808255809150509060018203906000526020600020016000909192909190915055505050565b6124e282611417565b15156124ed57600080fd5b80600a60008481526020019081526020016000209080519060200190612514929190612c27565b505050565b60008061253b8573ffffffffffffffffffffffffffffffffffffffff16612b3d565b151561254a57600191506126fe565b8473ffffffffffffffffffffffffffffffffffffffff1663f0b9e5ba8786866040518463ffffffff167c0100000000000000000000000000000000000000000000000000000000028152600401808473ffffffffffffffffffffffffffffffffffffffff1673ffffffffffffffffffffffffffffffffffffffff16815260200183815260200180602001828103825283818151815260200191508051906020019080838360005b8381101561260c5780820151818401526020810190506125f1565b50505050905090810190601f1680156126395780820380516001836020036101000a031916815260200191505b50945050505050602060405180830381600087803b15801561265a57600080fd5b505af115801561266e573d6000803e3d6000fd5b505050506040513d602081101561268457600080fd5b8101908080519060200190929190505050905063f0b9e5ba7c0100000000000000000000000000000000000000000000000000000000027bffffffffffffffffffffffffffffffffffffffffffffffffffffffff1916817bffffffffffffffffffffffffffffffffffffffffffffffffffffffff19161491505b50949350505050565b600080600080849250600091505b86518210156127bb57868281518110151561272c57fe5b90602001906020020151905080600019168360001916101561277d578281604051808360001916600019168152602001826000191660001916815260200192505050604051809103902092506127ae565b8083604051808360001916600019168152602001826000191660001916815260200192505050604051809103902092505b8180600101925050612715565b856000191683600019161493505050509392505050565b8173ffffffffffffffffffffffffffffffffffffffff166127f28261166a565b73ffffffffffffffffffffffffffffffffffffffff1614151561281457600080fd5b6128676001600260008573ffffffffffffffffffffffffffffffffffffffff1673ffffffffffffffffffffffffffffffffffffffff1681526020019081526020016000205461290090919063ffffffff16565b600260008473ffffffffffffffffffffffffffffffffffffffff1673ffffffffffffffffffffffffffffffffffffffff16815260200190815260200160002081905550600080600083815260200190815260200160002060006101000a81548173ffffffffffffffffffffffffffffffffffffffff021916908373ffffffffffffffffffffffffffffffffffffffff1602179055505050565b600082821115151561290e57fe5b818303905092915050565b600073ffffffffffffffffffffffffffffffffffffffff1660008083815260200190815260200160002060009054906101000a900473ffffffffffffffffffffffffffffffffffffffff1673ffffffffffffffffffffffffffffffffffffffff1614151561298657600080fd5b8160008083815260200190815260200160002060006101000a81548173ffffffffffffffffffffffffffffffffffffffff021916908373ffffffffffffffffffffffffffffffffffffffff160217905550612a2a6001600260008573ffffffffffffffffffffffffffffffffffffffff1673ffffffffffffffffffffffffffffffffffffffff16815260200190815260200160002054612a7190919063ffffffff16565b600260008473ffffffffffffffffffffffffffffffffffffffff1673ffffffffffffffffffffffffffffffffffffffff168152602001908152602001600020819055505050565b60008183019050828110151515612a8457fe5b80905092915050565b600073ffffffffffffffffffffffffffffffffffffffff168273ffffffffffffffffffffffffffffffffffffffff1614151515612ac957600080fd5b612ad38282612389565b8173ffffffffffffffffffffffffffffffffffffffff16600073ffffffffffffffffffffffffffffffffffffffff167fddf252ad1be2c89b69c2b068fc378daa952ba7f163c4a11628f55a4df523b3ef836040518082815260200191505060405180910390a35050565b600080823b905060008111915050919050565b60e060405190810160405280600073ffffffffffffffffffffffffffffffffffffffff1681526020016000815260200160608152602001606081526020016000801916815260200160608152602001600081525090565b828054600181600116156101000203166002900490600052602060002090601f016020900481019282601f10612be857805160ff1916838001178555612c16565b82800160010185558215612c16579182015b82811115612c15578251825591602001919060010190612bfa565b5b509050612c239190612cd3565b5090565b828054600181600116156101000203166002900490600052602060002090601f016020900481019282601f10612c6857805160ff1916838001178555612c96565b82800160010185558215612c96579182015b82811115612c95578251825591602001919060010190612c7a565b5b509050612ca39190612cd3565b5090565b815481835581811115612cce57818360005260206000209182019101612ccd9190612cd3565b5b505050565b612cf591905b80821115612cf1576000816000905550600101612cd9565b5090565b905600a165627a7a72305820f85ad315d76ddff0a8208124d149663435517dfc9cd481e69cba5c32c51d531a0029",
  "source": "pragma solidity ^0.4.23;\n\nimport \"./QuestCards.sol\";\nimport \"./MerkleProof.sol\";\n\ncontract QuestManager is QuestCards {\n\n    uint256 QuestCount = 0;\n    mapping (uint=>Quest) Quests;\n    uint256[] QuestList;\n\n    struct Quest {\n        address Creator;\n        uint256 ID;\n        string name;\n        string hint;\n        bytes32 merkleRoot;\n        string CardName;\n        uint numTokens;\n    }\n\n    function createQuest(string _name, string _hint, uint256 _numTokens, bytes32 _merkleRoot, string _cardName) public returns (uint256) {\n        Quest memory newQuest;\n        uint256 QuestID = QuestCount++;\n        newQuest.name = _name;\n        newQuest.hint = _hint;\n        newQuest.merkleRoot = _merkleRoot;\n        newQuest.ID = QuestID;\n        newQuest.Creator = msg.sender;\n        newQuest.CardName = _cardName;\n        newQuest.numTokens = _numTokens;\n        Quests[QuestID] = newQuest;\n        QuestList.push(QuestID);\n    }\n\n    function proveLocation(uint _questID, bytes32[] _proof, bytes32 _leaf) returns (bool){\n\n        if(MerkleProof.verifyProof(_proof,Quests[_questID].merkleRoot,_leaf)){\n            mintTo(msg.sender,\"\",Quests[_questID].CardName);\n            return true;\n        }\n        else{\n            return false;\n        }\n\n    }\n\n    //return list of Quests\n    function getQuestList() returns (uint256[]) {\n        return QuestList;\n    }\n\n    function getQuest(uint256 _ID) returns (string, string, bytes32, address, string, uint) {\n        Quest temp = Quests[_ID];\n        return (temp.name, temp.hint, temp.merkleRoot, temp.Creator, temp.CardName, temp.numTokens);\n    }\n\n}\n",
  "sourcePath": "/Users/luyzdeleon/current_projects/QuestMaker/contracts/QuestManager.sol",
  "compiler": {
    "name": "solc",
    "version": "0.4.24+commit.e67f0147.Emscripten.clang"
  },
  "schemaVersion": "2.0.0",
  "updatedAt": "2018-05-27T06:44:37.541Z"
}